:100000000C9434000C9453000C9487000C94AC00B6
:100010000C9451000C9451000C9451000C9451001C
:100020000C9451000C9451000C9451000C9451000C
:100030000C9451000C9451000C9451000C945100FC
:100040000C9451000C9451000C9451000C945100EC
:100050000C9451000C9451000C9451000C945100DC
:100060000C9451000C94510011241FBECFEFD8E026
:10007000DEBFCDBF12E0A0E0B1E0ECE4FBE002C0E7
:1000800005900D92A23AB107D9F722E0A2EAB2E0B8
:1000900001C01D92AD3AB207E1F70E94A0010C9495
:1000A000A4050C9400001F920F920FB60F9211241A
:1000B0002F938F939F93EF93FF938EE190E04A9B52
:1000C0009F5FE3ECF9E03197F1F700C00000815049
:1000D000B1F79B3090F08091A3028F5F8093A302D1
:1000E0009091A3028BEA989F812D11248695282F49
:1000F000220F820F981B9093A302FF91EF919F9183
:100100008F912F910F900FBE0F901F9018951F92F7
:100110000F920FB60F9211248F939F93EF93FF933B
:100120008EE190E04B9B9F5FE3ECF9E03197F1F7B4
:1001300000C000008150B1F79B3028F08091AB02E5
:1001400080958093AB02FF91EF919F918F910F90DB
:100150000FBE0F901F9018951F920F920FB60F921F
:1001600011242F933F934F938F939F939EE140E0F1
:1001700020E030E083B18770853039F0863019F0A7
:10018000833031F404C02F5F03C03F5F01C04F5F75
:10019000915081F72B3040F08091A20281508093E2
:1001A000A2028091A20266C03B3008F45EC080913A
:1001B000A2028F5F8093A20280910001833059F1E7
:1001C00028F4813049F08230B9F054C0853079F19B
:1001D00040F18630D9F14EC09091A20289E8989FF3
:1001E000812D11248295869587702CE3829F90192A
:1001F00011249093A2023EC09091A2028BEA989F94
:10020000812D112482958F7028E1829F90191124ED
:100210009093A2022FC08091A20287708093A202C5
:1002200029C08091A2028F718093A20223C0909175
:10023000A2028FE4989F812D1124869586952DE04A
:10024000829F901911249093A20214C09091A2024F
:1002500089E2989F812D112482958F7024E6829FD8
:10026000901911249093A20205C04B3018F081E040
:100270008093AC029F918F914F913F912F910F905E
:100280000FBE0F901F90189580E00E941905809175
:100290000001833001F128F4813049F0823089F087
:1002A0004BC0853061F108F1863099F145C08091ED
:1002B000A2028093A50261E081E091E00E943205F4
:1002C0003BC08091A2028093A60261E08FE091E0A2
:1002D0000E94320531C08091A2028093A70261E0A2
:1002E00088E291E00E94320527C08091A2028093AB
:1002F000A80261E08CE391E00E9432051DC080916C
:10030000A2028093A90261E088E491E00E94320594
:1003100013C08091A2028093AA021092A40220E04E
:100320003091A5024091A6025091A7026091A802C7
:100330007091A9020E941D0381E00E941905089591
:10034000CF93DF93CDB7DEB728970FB6F894DEBF13
:100350000FBECDBF1092A3021092AB021092AC025E
:100360001092A2020E9464032FE38DE093E02150DB
:1003700080409040E1F700C000000E94BA0484B1C0
:10038000887F84B985B1876085B9E8E6F0E080812F
:1003900081608083EBE6F0E08081876080838AB1B2
:1003A000837F8AB98BB18C608BB9E9E6F0E08081FC
:1003B000856080838DB383608DBB789487E690E001
:1003C0000E94990580E00E94100560E084E591E0BC
:1003D0000E94C704EFE9F6E821E0E150F040204038
:1003E000E1F700C0000084E18093A40282E38093DF
:1003F000A50288E08093A60283E08093A802809300
:10040000A70285E08093A9028FE08093AA0205EA03
:1004100012E06894FF24F5F88091AB02882339F14B
:1004200084EA92E00E94CB028091A402982F9F70F0
:10043000905D9C8382958F70805D8B83F8018081B5
:10044000982F9F70905D9A8382958F70805D8983CD
:1004500061E0CE0101960E94C704FFE926E881E031
:10046000F15020408040E1F700C0000026C084EA3F
:1004700092E00E94CB028091A402982F9F70905D21
:100480009C8382958F70805D8B83F8018081982F8B
:100490009F70905D9A8382958F70805D898360E004
:1004A000CE0101960E94C704FFE926E881E0F150E1
:1004B00020408040E1F700C000008091A30281301D
:1004C00009F051C061E089E591E00E94320561E0E8
:1004D0008CE691E00E94320581E08093000182E089
:1004E0000E94190532C08091A2020E94FE028F7004
:1004F000805D88878091A2020E94FE0282958F70A3
:10050000805D8F83FE82FD8260E0CE0105960E94B1
:10051000C7049FE9E6E8F1E09150E040F040E1F7E0
:1005200000C000008091AC02882359F00E94440171
:10053000809100018F5F809300011092AC021092B5
:10054000A20280910001873021F08091A3028130C6
:1005500051F280E00E94190561E08CE791E00E9471
:1005600032051092A3028091A302823009F054CF89
:1005700061E08EE891E00E9432052FE38DE093E088
:10058000215080409040E1F700C000008091A3021C
:10059000823071F341CF0F931F93CF93DF93CDB789
:1005A000DEB727970FB6F894DEBF0FBECDBF8C0124
:1005B00060E088E60E94CB0347E050E0BE016F5F39
:1005C0007F4F88E60E9417048981F80180838A8121
:1005D00081838B8182838C8183838D8184838E81CF
:1005E00085838F81868327960FB6F894DEBF0FBE72
:1005F000CDBFDF91CF911F910F9108958A30E0F028
:100600002DEC829F212D11242695269526952A30A2
:1006100008F0FFCF90E1299F900111249DEC899F64
:10062000912D1124969596959695990F392F330F04
:10063000330F930F891B822B0895CF92DF92EF9295
:10064000FF920F931F93CF93DF93CDB7DEB72F9712
:100650000FB6F894DEBF0FBECDBFC32ED42EE52E4D
:10066000F62E072F182F1982822F0E94FE028A83EE
:100670008C2D0E94FE028B838D2D0E94FE028C83A6
:10068000ED828F2D0E94FE028E83802F0E94FE023B
:100690008F83812F0E94FE02888748E050E0BE01D0
:1006A0006F5F7F4F88E60E946D032F960FB6F89418
:1006B000DEBF0FBECDBFDF91CF911F910F91FF9095
:1006C000EF90DF90CF9008951092B90082E580936B
:1006D000B80084E08093BC000895CF93DF9394EA40
:1006E0009093BC00ECEBF0E090819923ECF79091B3
:1006F000B900987F983039F080E98093BC008091F0
:10070000B900887F45C0880F8093BB0084E8809340
:10071000BC00ECEBF0E080818823ECF78091B9001D
:10072000887F883121F41416150644F027C080E92B
:100730008093BC008091B900887F2AC0DB01460FFE
:10074000571F8BEB90E0ECEBF0E034E869EB70E0E6
:100750002D91EC012883308320812223ECF7EB01DB
:100760002881287F283239F080E98093BC0080916D
:10077000B900887F0DC0A417B50751F784E98093AD
:10078000BC008FE99FE00197F1F700C0000080E016
:10079000DF91CF91089594EA9093BC00ECEBF0E0E8
:1007A00090819923ECF79091B900987F983039F0B7
:1007B00080E98093BC008091B900887F0895880FFC
:1007C0008093BB0084E88093BC00ECEBF0E0808178
:1007D0008823ECF78091B900887F883139F080E96F
:1007E0008093BC008091B900887F08956093BB001E
:1007F00084E88093BC00ECEBF0E080818823ECF788
:100800008091B900887F883239F080E98093BC00FC
:100810008091B900887F089584E98093BC008FE9B6
:100820009FE00197F1F700C0000080E00895AF92CB
:10083000BF92CF92DF92EF92FF921F93CF93DF93FD
:1008400094EA9093BC00ECEBF0E090819923ECF7F4
:100850009091B900987F983039F080E98093BC007E
:100860008091B900887F7CC0880F81608093BB0035
:1008700084E88093BC00ECEBF0E080818823ECF707
:100880008091B900887F803449F49A012150310960
:100890001216130654F080E090E034C080E9809393
:1008A000BC008091B900887F5BC0DB0180E090E0F4
:1008B000ECEBF0E00F2EF4ECEF2EF02D0F2EFBEB17
:1008C000CF2ED12CF02D0F2EF9EBAF2EB12CF02D19
:1008D000E082108110681083F080FF20ECF7E601C1
:1008E000F880FD92E5011881187F103539F080E914
:1008F0008093BC008091B900887F32C00196821736
:10090000930734F3ECEBF0E024E8208320812068A7
:10091000208320812223ECF7423051053CF02091C6
:10092000BB00FB01E80FF91F218304C08091BB00CD
:10093000FB0180838091B900887F883559F484E970
:100940008093BC008FE99FE00197F1F700C00000A1
:1009500080E006C080E98093BC008091B900887F68
:10096000DF91CF911F91FF90EF90DF90CF90BF90DC
:10097000AF90089561E280E70E94CB0361E880E7D1
:100980000E94CB036FEE80E70E94CB030895CF93C4
:10099000DF93CDB7DEB729970FB6F894DEBF0FBE51
:1009A000CDBF1982FE01329640E050E021E030E0F8
:1009B00020FF0CC0DC01A40FB51FAC91B0E0AA0F62
:1009C000BB1FAE55BE4F7C9170830EC0DC01A40FDF
:1009D000B51FAC91B0E0AA0FBB1FAE55BE4F11962C
:1009E0007C9170834F5F5F4F2F5F3F4F319629306F
:1009F0003105F1F6662319F089858064898749E01D
:100A000050E0BE016F5F7F4F80E70E946D03299623
:100A10000FB6F894DEBF0FBECDBFDF91CF91089522
:100A2000803108F08FE0682F606E80E70E94CB0372
:100A30000895843008F083E0880F682F616880E7AC
:100A40000E94CB030895FC012081222341F03196BE
:100A500080E090E0019621912111FCCF089580E083
:100A600090E008955F926F927F928F929F92AF92E3
:100A7000BF92CF92DF92EF92FF920F931F93CF938B
:100A8000DF9300D000D0CDB7DEB75C01762E0E9498
:100A900023056C01DD24760124E0E20EF11C7720B1
:100AA000A1F1812C6894992495F8512C612C9A829B
:100AB0009B829C821E141F042CF5052D162D8A8105
:100AC00089838B818A838C818B830C151D0534F47B
:100AD000F501E00FF11F80818C8301C09C8260E0F2
:100AE000CE0101960E94C7048FEF99E628E181505C
:100AF00090402040E1F700C000000F5F1F4F0E152F
:100B00001F05ECF283948710D2CF0F900F900F90B7
:100B10000F90DF91CF911F910F91FF90EF90DF9099
:100B2000CF90BF90AF909F908F907F906F905F908D
:100B300008959093C5008093C40088E18093C1001C
:0C0B400086E08093C2000895F894FFCF77
:100B4C0001496E677265736520686F726173004945
:100B5C006E677265736520646961206465206C61E1
:100B6C002073656D616E6100496E677265736520F7
:100B7C006469612064656C206D657300496E6772F1
:100B8C00657365206D657300496E677265736520CA
:100B9C0061F16F00493C335500436F6E66696775B0
:100BAC00726520656C2072656C6F6A00496E6772A5
:100BBC00657365206D696E75746F730052656C6F2B
:100BCC006A20636F6E666967757261646F00436F4C
:100BDC006E666967757265206C6120616C61726DFF
:100BEC006100010002000400080010002000400019
:100BFC0080000001000200040008001000200040EA
:100C0C000080000000000000000000000000000058
:100C1C000000C912C015F912E3003005C812003AE1
:100C2C000017000006002002CE12ED12240C5D23EA
:100C3C00000400240009C03FC0120008C0000000DE
:100C4C00000C3F0C0600DB008F00E6006920FD0065
:100C5C000700FF00EF000012000A0024C800000982
:100C6C008310BB02F7008F1239000F12F9007100CC
:100C7C00BD00F60000121E00702438003605362127
:100C8C003F00F3003F20F320ED0001123E00300C3A
:100C9C003628002D0015090C390000210F00030C1B
:100CAC000800000158107820D8008E0858087100F0
:100CBC008E04701000100E0000363000D41050104E
:100CCC00DC00700186045000882078001C00042091
:100CDC001428C0280C204808490900128924200532
:020CEC00FF3FC8
:00000001FF
